{
  "_format": "hh-sol-artifact-1",
  "contractName": "Veripharm",
  "sourceName": "contracts/veripharm.sol",
  "abi": [
    {
      "anonymous": false,
      "inputs": [
        {
          "indexed": false,
          "internalType": "string",
          "name": "message",
          "type": "string"
        },
        {
          "indexed": false,
          "internalType": "string",
          "name": "batchId",
          "type": "string"
        }
      ],
      "name": "Alert",
      "type": "event"
    },
    {
      "anonymous": false,
      "inputs": [
        {
          "indexed": false,
          "internalType": "string",
          "name": "batchId",
          "type": "string"
        },
        {
          "indexed": true,
          "internalType": "address",
          "name": "from",
          "type": "address"
        },
        {
          "indexed": true,
          "internalType": "address",
          "name": "to",
          "type": "address"
        }
      ],
      "name": "CustodyTransferred",
      "type": "event"
    },
    {
      "anonymous": false,
      "inputs": [
        {
          "indexed": false,
          "internalType": "string",
          "name": "batchId",
          "type": "string"
        },
        {
          "indexed": false,
          "internalType": "string",
          "name": "drugName",
          "type": "string"
        },
        {
          "indexed": true,
          "internalType": "address",
          "name": "manufacturer",
          "type": "address"
        }
      ],
      "name": "DrugRegistered",
      "type": "event"
    },
    {
      "anonymous": false,
      "inputs": [
        {
          "indexed": false,
          "internalType": "string",
          "name": "batchId",
          "type": "string"
        },
        {
          "indexed": false,
          "internalType": "string",
          "name": "reason",
          "type": "string"
        }
      ],
      "name": "DrugRevoked",
      "type": "event"
    },
    {
      "inputs": [
        {
          "internalType": "address",
          "name": "_user",
          "type": "address"
        },
        {
          "internalType": "enum Veripharm.Role",
          "name": "_role",
          "type": "uint8"
        }
      ],
      "name": "assignRole",
      "outputs": [],
      "stateMutability": "nonpayable",
      "type": "function"
    },
    {
      "inputs": [
        {
          "internalType": "string",
          "name": "",
          "type": "string"
        },
        {
          "internalType": "uint256",
          "name": "",
          "type": "uint256"
        }
      ],
      "name": "custodyTrail",
      "outputs": [
        {
          "internalType": "address",
          "name": "",
          "type": "address"
        }
      ],
      "stateMutability": "view",
      "type": "function"
    },
    {
      "inputs": [
        {
          "internalType": "string",
          "name": "",
          "type": "string"
        }
      ],
      "name": "drugBatches",
      "outputs": [
        {
          "internalType": "string",
          "name": "batchId",
          "type": "string"
        },
        {
          "internalType": "string",
          "name": "drugName",
          "type": "string"
        },
        {
          "internalType": "string",
          "name": "manufacturer",
          "type": "string"
        },
        {
          "internalType": "uint256",
          "name": "manufactureDate",
          "type": "uint256"
        },
        {
          "internalType": "uint256",
          "name": "expiryDate",
          "type": "uint256"
        },
        {
          "internalType": "address",
          "name": "currentHolder",
          "type": "address"
        },
        {
          "internalType": "bool",
          "name": "isRegistered",
          "type": "bool"
        },
        {
          "internalType": "bool",
          "name": "isRevoked",
          "type": "bool"
        }
      ],
      "stateMutability": "view",
      "type": "function"
    },
    {
      "inputs": [
        {
          "internalType": "string",
          "name": "_batchId",
          "type": "string"
        }
      ],
      "name": "getCustodyTrail",
      "outputs": [
        {
          "internalType": "address[]",
          "name": "",
          "type": "address[]"
        }
      ],
      "stateMutability": "view",
      "type": "function"
    },
    {
      "inputs": [
        {
          "internalType": "string",
          "name": "_batchId",
          "type": "string"
        },
        {
          "internalType": "string",
          "name": "_drugName",
          "type": "string"
        },
        {
          "internalType": "string",
          "name": "_manufacturer",
          "type": "string"
        },
        {
          "internalType": "uint256",
          "name": "_manufactureDate",
          "type": "uint256"
        },
        {
          "internalType": "uint256",
          "name": "_expiryDate",
          "type": "uint256"
        }
      ],
      "name": "registerDrug",
      "outputs": [],
      "stateMutability": "nonpayable",
      "type": "function"
    },
    {
      "inputs": [
        {
          "internalType": "string",
          "name": "_batchId",
          "type": "string"
        },
        {
          "internalType": "string",
          "name": "_reason",
          "type": "string"
        }
      ],
      "name": "revokeDrug",
      "outputs": [],
      "stateMutability": "nonpayable",
      "type": "function"
    },
    {
      "inputs": [
        {
          "internalType": "address",
          "name": "",
          "type": "address"
        }
      ],
      "name": "roles",
      "outputs": [
        {
          "internalType": "enum Veripharm.Role",
          "name": "",
          "type": "uint8"
        }
      ],
      "stateMutability": "view",
      "type": "function"
    },
    {
      "inputs": [
        {
          "internalType": "string",
          "name": "_batchId",
          "type": "string"
        },
        {
          "internalType": "address",
          "name": "_to",
          "type": "address"
        }
      ],
      "name": "transferCustody",
      "outputs": [],
      "stateMutability": "nonpayable",
      "type": "function"
    },
    {
      "inputs": [
        {
          "internalType": "string",
          "name": "_batchId",
          "type": "string"
        }
      ],
      "name": "verifyAuthenticity",
      "outputs": [
        {
          "internalType": "bool",
          "name": "isValid",
          "type": "bool"
        },
        {
          "internalType": "string",
          "name": "status",
          "type": "string"
        }
      ],
      "stateMutability": "view",
      "type": "function"
    }
  ],
  "bytecode": "0x6080604052348015600f57600080fd5b50611ef18061001f6000396000f3fe608060405234801561001057600080fd5b50600436106100935760003560e01c80638d2ba162116100665780638d2ba162146101235780639937464214610153578063b82b566d14610183578063c853bf321461019f578063fb6ac892146101cf57610093565b806329f5c30c14610098578063630a195b146100b45780636f5c148e146100d05780638077366d146100ec575b600080fd5b6100b260048036038101906100ad91906111c7565b610200565b005b6100ce60048036038101906100c991906112c2565b61039c565b005b6100ea60048036038101906100e59190611302565b610407565b005b6101066004803603810190610101919061135e565b6107b7565b60405161011a989796959493929190611469565b60405180910390f35b61013d60048036038101906101389190611528565b6109e7565b60405161014a9190611584565b60405180910390f35b61016d6004803603810190610168919061159f565b610a4b565b60405161017a9190611643565b60405180910390f35b61019d6004803603810190610198919061165e565b610a6b565b005b6101b960048036038101906101b4919061135e565b610db9565b6040516101c691906117eb565b60405180910390f35b6101e960048036038101906101e4919061135e565b610ed5565b6040516101f792919061180d565b60405180910390f35b6001806003811115610215576102146115cc565b5b600260003373ffffffffffffffffffffffffffffffffffffffff1673ffffffffffffffffffffffffffffffffffffffff16815260200190815260200160002060009054906101000a900460ff166003811115610274576102736115cc565b5b146102b4576040517f08c379a00000000000000000000000000000000000000000000000000000000081526004016102ab90611889565b60405180910390fd5b826000816040516102c591906118e5565b908152602001604051809103902060050160149054906101000a900460ff16610323576040517f08c379a000000000000000000000000000000000000000000000000000000000815260040161031a90611948565b60405180910390fd5b600160008560405161033591906118e5565b908152602001604051809103902060050160156101000a81548160ff0219169083151502179055507f7e996c4de5cd9059c36534f52920f3eabe1e7b1a922b29a0bf301e885652e401848460405161038e929190611968565b60405180910390a150505050565b80600260008473ffffffffffffffffffffffffffffffffffffffff1673ffffffffffffffffffffffffffffffffffffffff16815260200190815260200160002060006101000a81548160ff021916908360038111156103fe576103fd6115cc565b5b02179055505050565b8160008160405161041891906118e5565b908152602001604051809103902060050160149054906101000a900460ff16610476576040517f08c379a000000000000000000000000000000000000000000000000000000000815260040161046d90611948565b60405180910390fd5b8260008160405161048791906118e5565b908152602001604051809103902060050160159054906101000a900460ff16156104e6576040517f08c379a00000000000000000000000000000000000000000000000000000000081526004016104dd906119eb565b60405180910390fd5b3373ffffffffffffffffffffffffffffffffffffffff1660008560405161050d91906118e5565b908152602001604051809103902060050160009054906101000a900473ffffffffffffffffffffffffffffffffffffffff1673ffffffffffffffffffffffffffffffffffffffff1614610595576040517f08c379a000000000000000000000000000000000000000000000000000000000815260040161058c90611a57565b60405180910390fd5b600073ffffffffffffffffffffffffffffffffffffffff168373ffffffffffffffffffffffffffffffffffffffff1603610604576040517f08c379a00000000000000000000000000000000000000000000000000000000081526004016105fb90611ac3565b60405180910390fd5b60008460405161061491906118e5565b9081526020016040518091039020600401544210610667576040517f08c379a000000000000000000000000000000000000000000000000000000000815260040161065e90611b2f565b60405180910390fd5b60003390508360008660405161067d91906118e5565b908152602001604051809103902060050160006101000a81548173ffffffffffffffffffffffffffffffffffffffff021916908373ffffffffffffffffffffffffffffffffffffffff1602179055506001856040516106dc91906118e5565b9081526020016040518091039020849080600181540180825580915050600190039060005260206000200160009091909190916101000a81548173ffffffffffffffffffffffffffffffffffffffff021916908373ffffffffffffffffffffffffffffffffffffffff1602179055508373ffffffffffffffffffffffffffffffffffffffff168173ffffffffffffffffffffffffffffffffffffffff167f7fc70ede9a8a9960e2e93000354bb546cc9206bf59f2a62291d8abea2db4a7c5876040516107a89190611b4f565b60405180910390a35050505050565b6000818051602081018201805184825260208301602085012081835280955050505050506000915090508060000180546107f090611ba0565b80601f016020809104026020016040519081016040528092919081815260200182805461081c90611ba0565b80156108695780601f1061083e57610100808354040283529160200191610869565b820191906000526020600020905b81548152906001019060200180831161084c57829003601f168201915b50505050509080600101805461087e90611ba0565b80601f01602080910402602001604051908101604052809291908181526020018280546108aa90611ba0565b80156108f75780601f106108cc576101008083540402835291602001916108f7565b820191906000526020600020905b8154815290600101906020018083116108da57829003601f168201915b50505050509080600201805461090c90611ba0565b80601f016020809104026020016040519081016040528092919081815260200182805461093890611ba0565b80156109855780601f1061095a57610100808354040283529160200191610985565b820191906000526020600020905b81548152906001019060200180831161096857829003601f168201915b5050505050908060030154908060040154908060050160009054906101000a900473ffffffffffffffffffffffffffffffffffffffff16908060050160149054906101000a900460ff16908060050160159054906101000a900460ff16905088565b6001828051602081018201805184825260208301602085012081835280955050505050508181548110610a1957600080fd5b906000526020600020016000915091509054906101000a900473ffffffffffffffffffffffffffffffffffffffff1681565b60026020528060005260406000206000915054906101000a900460ff1681565b6001806003811115610a8057610a7f6115cc565b5b600260003373ffffffffffffffffffffffffffffffffffffffff1673ffffffffffffffffffffffffffffffffffffffff16815260200190815260200160002060009054906101000a900460ff166003811115610adf57610ade6115cc565b5b14610b1f576040517f08c379a0000000000000000000000000000000000000000000000000000000008152600401610b1690611889565b60405180910390fd5b600086604051610b2f91906118e5565b908152602001604051809103902060050160149054906101000a900460ff1615610b8e576040517f08c379a0000000000000000000000000000000000000000000000000000000008152600401610b8590611c1d565b60405180910390fd5b6040518061010001604052808781526020018681526020018581526020018481526020018381526020013373ffffffffffffffffffffffffffffffffffffffff16815260200160011515815260200160001515815250600087604051610bf491906118e5565b90815260200160405180910390206000820151816000019081610c179190611de9565b506020820151816001019081610c2d9190611de9565b506040820151816002019081610c439190611de9565b50606082015181600301556080820151816004015560a08201518160050160006101000a81548173ffffffffffffffffffffffffffffffffffffffff021916908373ffffffffffffffffffffffffffffffffffffffff16021790555060c08201518160050160146101000a81548160ff02191690831515021790555060e08201518160050160156101000a81548160ff021916908315150217905550905050600186604051610cf291906118e5565b9081526020016040518091039020339080600181540180825580915050600190039060005260206000200160009091909190916101000a81548173ffffffffffffffffffffffffffffffffffffffff021916908373ffffffffffffffffffffffffffffffffffffffff1602179055503373ffffffffffffffffffffffffffffffffffffffff167ff218f27eb1d5fb025991628b0f18a043d0c3b678a9d2de4d7baee375663ddcd68787604051610da9929190611968565b60405180910390a2505050505050565b606081600081604051610dcc91906118e5565b908152602001604051809103902060050160149054906101000a900460ff16610e2a576040517f08c379a0000000000000000000000000000000000000000000000000000000008152600401610e2190611948565b60405180910390fd5b600183604051610e3a91906118e5565b9081526020016040518091039020805480602002602001604051908101604052809291908181526020018280548015610ec857602002820191906000526020600020905b8160009054906101000a900473ffffffffffffffffffffffffffffffffffffffff1673ffffffffffffffffffffffffffffffffffffffff1681526020019060010190808311610e7e575b5050505050915050919050565b60006060600083604051610ee991906118e5565b908152602001604051809103902060050160149054906101000a900460ff16610f4d5760006040518060400160405280600e81526020017f4e6f74207265676973746572656400000000000000000000000000000000000081525091509150611068565b600083604051610f5d91906118e5565b908152602001604051809103902060050160159054906101000a900460ff1615610fc25760006040518060400160405280600781526020017f5265766f6b65640000000000000000000000000000000000000000000000000081525091509150611068565b600083604051610fd291906118e5565b908152602001604051809103902060040154421061102b5760006040518060400160405280600781526020017f457870697265640000000000000000000000000000000000000000000000000081525091509150611068565b60016040518060400160405280601381526020017f56616c696420616e642061757468656e74696300000000000000000000000000815250915091505b915091565b6000604051905090565b600080fd5b600080fd5b600080fd5b600080fd5b6000601f19601f8301169050919050565b7f4e487b7100000000000000000000000000000000000000000000000000000000600052604160045260246000fd5b6110d48261108b565b810181811067ffffffffffffffff821117156110f3576110f261109c565b5b80604052505050565b600061110661106d565b905061111282826110cb565b919050565b600067ffffffffffffffff8211156111325761113161109c565b5b61113b8261108b565b9050602081019050919050565b82818337600083830152505050565b600061116a61116584611117565b6110fc565b90508281526020810184848401111561118657611185611086565b5b611191848285611148565b509392505050565b600082601f8301126111ae576111ad611081565b5b81356111be848260208601611157565b91505092915050565b600080604083850312156111de576111dd611077565b5b600083013567ffffffffffffffff8111156111fc576111fb61107c565b5b61120885828601611199565b925050602083013567ffffffffffffffff8111156112295761122861107c565b5b61123585828601611199565b9150509250929050565b600073ffffffffffffffffffffffffffffffffffffffff82169050919050565b600061126a8261123f565b9050919050565b61127a8161125f565b811461128557600080fd5b50565b60008135905061129781611271565b92915050565b600481106112aa57600080fd5b50565b6000813590506112bc8161129d565b92915050565b600080604083850312156112d9576112d8611077565b5b60006112e785828601611288565b92505060206112f8858286016112ad565b9150509250929050565b6000806040838503121561131957611318611077565b5b600083013567ffffffffffffffff8111156113375761133661107c565b5b61134385828601611199565b925050602061135485828601611288565b9150509250929050565b60006020828403121561137457611373611077565b5b600082013567ffffffffffffffff8111156113925761139161107c565b5b61139e84828501611199565b91505092915050565b600081519050919050565b600082825260208201905092915050565b60005b838110156113e15780820151818401526020810190506113c6565b60008484015250505050565b60006113f8826113a7565b61140281856113b2565b93506114128185602086016113c3565b61141b8161108b565b840191505092915050565b6000819050919050565b61143981611426565b82525050565b6114488161125f565b82525050565b60008115159050919050565b6114638161144e565b82525050565b6000610100820190508181036000830152611484818b6113ed565b90508181036020830152611498818a6113ed565b905081810360408301526114ac81896113ed565b90506114bb6060830188611430565b6114c86080830187611430565b6114d560a083018661143f565b6114e260c083018561145a565b6114ef60e083018461145a565b9998505050505050505050565b61150581611426565b811461151057600080fd5b50565b600081359050611522816114fc565b92915050565b6000806040838503121561153f5761153e611077565b5b600083013567ffffffffffffffff81111561155d5761155c61107c565b5b61156985828601611199565b925050602061157a85828601611513565b9150509250929050565b6000602082019050611599600083018461143f565b92915050565b6000602082840312156115b5576115b4611077565b5b60006115c384828501611288565b91505092915050565b7f4e487b7100000000000000000000000000000000000000000000000000000000600052602160045260246000fd5b6004811061160c5761160b6115cc565b5b50565b600081905061161d826115fb565b919050565b600061162d8261160f565b9050919050565b61163d81611622565b82525050565b60006020820190506116586000830184611634565b92915050565b600080600080600060a0868803121561167a57611679611077565b5b600086013567ffffffffffffffff8111156116985761169761107c565b5b6116a488828901611199565b955050602086013567ffffffffffffffff8111156116c5576116c461107c565b5b6116d188828901611199565b945050604086013567ffffffffffffffff8111156116f2576116f161107c565b5b6116fe88828901611199565b935050606061170f88828901611513565b925050608061172088828901611513565b9150509295509295909350565b600081519050919050565b600082825260208201905092915050565b6000819050602082019050919050565b6117628161125f565b82525050565b60006117748383611759565b60208301905092915050565b6000602082019050919050565b60006117988261172d565b6117a28185611738565b93506117ad83611749565b8060005b838110156117de5781516117c58882611768565b97506117d083611780565b9250506001810190506117b1565b5085935050505092915050565b60006020820190508181036000830152611805818461178d565b905092915050565b6000604082019050611822600083018561145a565b818103602083015261183481846113ed565b90509392505050565b7f4163636573732064656e69656420666f72207468697320726f6c650000000000600082015250565b6000611873601b836113b2565b915061187e8261183d565b602082019050919050565b600060208201905081810360008301526118a281611866565b9050919050565b600081905092915050565b60006118bf826113a7565b6118c981856118a9565b93506118d98185602086016113c3565b80840191505092915050565b60006118f182846118b4565b915081905092915050565b7f44727567206e6f74207265676973746572656400000000000000000000000000600082015250565b60006119326013836113b2565b915061193d826118fc565b602082019050919050565b6000602082019050818103600083015261196181611925565b9050919050565b6000604082019050818103600083015261198281856113ed565b9050818103602083015261199681846113ed565b90509392505050565b7f4472756720626174636820686173206265656e207265766f6b65640000000000600082015250565b60006119d5601b836113b2565b91506119e08261199f565b602082019050919050565b60006020820190508181036000830152611a04816119c8565b9050919050565b7f4e6f742063757272656e7420686f6c6465720000000000000000000000000000600082015250565b6000611a416012836113b2565b9150611a4c82611a0b565b602082019050919050565b60006020820190508181036000830152611a7081611a34565b9050919050565b7f496e76616c696420726563697069656e74206164647265737300000000000000600082015250565b6000611aad6019836113b2565b9150611ab882611a77565b602082019050919050565b60006020820190508181036000830152611adc81611aa0565b9050919050565b7f4472756720686173206578706972656400000000000000000000000000000000600082015250565b6000611b196010836113b2565b9150611b2482611ae3565b602082019050919050565b60006020820190508181036000830152611b4881611b0c565b9050919050565b60006020820190508181036000830152611b6981846113ed565b905092915050565b7f4e487b7100000000000000000000000000000000000000000000000000000000600052602260045260246000fd5b60006002820490506001821680611bb857607f821691505b602082108103611bcb57611bca611b71565b5b50919050565b7f426174636820616c726561647920726567697374657265640000000000000000600082015250565b6000611c076018836113b2565b9150611c1282611bd1565b602082019050919050565b60006020820190508181036000830152611c3681611bfa565b9050919050565b60008190508160005260206000209050919050565b60006020601f8301049050919050565b600082821b905092915050565b600060088302611c9f7fffffffffffffffffffffffffffffffffffffffffffffffffffffffffffffffff82611c62565b611ca98683611c62565b95508019841693508086168417925050509392505050565b6000819050919050565b6000611ce6611ce1611cdc84611426565b611cc1565b611426565b9050919050565b6000819050919050565b611d0083611ccb565b611d14611d0c82611ced565b848454611c6f565b825550505050565b600090565b611d29611d1c565b611d34818484611cf7565b505050565b5b81811015611d5857611d4d600082611d21565b600181019050611d3a565b5050565b601f821115611d9d57611d6e81611c3d565b611d7784611c52565b81016020851015611d86578190505b611d9a611d9285611c52565b830182611d39565b50505b505050565b600082821c905092915050565b6000611dc060001984600802611da2565b1980831691505092915050565b6000611dd98383611daf565b9150826002028217905092915050565b611df2826113a7565b67ffffffffffffffff811115611e0b57611e0a61109c565b5b611e158254611ba0565b611e20828285611d5c565b600060209050601f831160018114611e535760008415611e41578287015190505b611e4b8582611dcd565b865550611eb3565b601f198416611e6186611c3d565b60005b82811015611e8957848901518255600182019150602085019450602081019050611e64565b86831015611ea65784890151611ea2601f891682611daf565b8355505b6001600288020188555050505b50505050505056fea2646970667358221220053274cea25fac86e744690ee271f455ad9747cc25a790e3bada9130b1ec7aa364736f6c634300081c0033",
  "linkReferences": {},
  "deployedLinkReferences": {}
}